:1000000000308A00032A00000A108A100A118207B1
:1000100028340C34013406340A108A100A1182077D
:10002000543465346D3470346534723461347434EE
:100030007534723465343A3400342D3084008313BF
:100040000008031931280130F800F701F70B2628C2
:10005000F80B25284A30F700F70B2C282F28800BA7
:100060002328003434183628081237280816B41804
:100070003B2888123C288816341940280813412848
:100080000817B41945288813462888170000081552
:10009000492808110034B5010030081A0130B504B0
:1000A0000030881A0130F7000310F70D7708B50407
:1000B0000030081B0130F700F70DF70DFC30F70595
:1000C0007708B5040030881B0130F700F70DF70DF5
:1000D000F70DF830F7057708B5043508F800003457
:1000E00008108316081688160817881783128814B4
:1000F0000000081500004B207808B400081100002B
:10010000081500004B207808B30008118316081268
:100110008812081388138312340EF700F030F705A5
:1001200077083304F8007808B300B31B7128B108CE
:10013000031D9C2808109D2808140000881000004A
:100140000811320EB3000F30B3053308B40032206B
:1001500032080F39B300B40032200034831608127D
:1001600088120813881308110810881083120810C9
:10017000881008110F30AD001D200130AA002A0898
:10018000033C031CCB280330B40032200530AD0003
:100190001D20AA0ABF280230B4003220AA012A0872
:1001A000033C031CDC282A080420AB00B1012B0807
:1001B000B2007020AA0ACF288A110A124F2A2E0BE9
:1001C000E328AF01F7282E08023C031DEA2840303F
:1001D000AF00F7282E08033C031DF1281430AF00B0
:1001E000F7282E08043C031DF7285430AF000130D7
:1001F0002D02AF072F088038B000B1013008B200DF
:10020000702000342C080C3A03190D29063A031902
:100210001529023A03191B292029B1010130B20026
:1002200070200230AD001D2026290130AD000230C3
:10023000AE00DF202629B1011030B200702026293F
:100240000130B1002C08B2007020262900348E3015
:10025000F7002D08F8002C08F900FA01F808031D32
:100260003B297908F800F9010830F702F808031D66
:100270003B29F70143290310F81B4229F90DF80D1A
:10028000F7033B29F8138A110A12782A2C0803195C
:10029000B629B40030080319B629B4070318572942
:1002A0007F30B402031CB6290319B6295B298130BB
:1002B000B4070318B6293408F700F801F901FA0168
:1002C0002D08B800B8172E08B7002F08B600183050
:1002D000B400B501361C84293308FA07031C7629BB
:1002E000F90A031D7629F80A0319B5173208F90728
:1002F000031C7D29F80A0319B5173108AE00AE17A3
:100300002E08F8070318B517B50DF80CF90CFA0C00
:10031000B80CB70CB60C0310B40B69290130F70701
:100320000318B629F81B9B29B80DFA0DF90DF80D25
:10033000F7030319B629B81FAC29FA0A031DAC2923
:10034000F90A031DAC29F80A031DAC29F80CF90CB5
:10035000FA0CF70A0319B6292D08B5003108B506BD
:10036000B51FB429F817BA29F813BA29F701F8010B
:10037000F901FA018A110A12892A8E30F7002C0835
:10038000F7022D08F9002E08F800F917F7080319ED
:10039000D4290310F908031DD029F8080319D4291A
:1003A000F90CF80CF70BC929AD1FDB29F809F9097D
:1003B000F80A0319F90A8A110A12922AF801F901B6
:1003C000F701FA012F08031DE8292E080319022A54
:1003D0001030B0000310AC0DAD0DF70DFA0D2F0865
:1003E0007A02031DF5292E087702031CFE292E0828
:1003F000F702031CFA032F08FA020314F80DF90D93
:10040000B00BEA290034840183131F30830583165F
:10041000031787110C3003139900E2309800D03095
:1004200083129800831603170908C0398900031343
:100430001F129F1200300317880083128701880162
:10044000890120300313A0003030A100A2002E301B
:10045000A3003030A4002030A5004330A600A7013F
:10046000713083168F000F0883121F179F17831692
:100470009F1783121F14831603170908C0398900B8
:1004800003131F129F120130031788000030F80079
:10049000831203131F08C33978049F00AE280C3061
:1004A000AC0002210330AD000130AE00DF20AA0114
:1004B0002A080C20AA0AF700AC0002210C302A02FC
:1004C000031D582A0430AA00FA30AD001D20AA0BE3
:1004D000642A9F149F186A2A1E08FA0083161E08B1
:1004E0008312AA001E08AB00AD002A08AC00272921
:1004F0007A08AF007908AE007808AD007708AC0044
:100500003530B3005E30B2007A30B1007D30B000DB
:1005100046297A08AF007908AE007808AD00770860
:10052000AC00BD297908A9007808A800A908031D16
:100530009D2A2808633C0318A02A3130A000A22A73
:100540002030A0002908AD002808AC00AF010A3017
:10055000AE00DE217908AB007808AA007908AD006A
:100560007808AC00AF010A30AE00DE2130307707EA
:10057000A1002908AD002808AC00AF010A30AE0088
:10058000DE2130307707A200DF30A5000530AD0056
:100590000230AE00DF2020308400831300300004DE
:1005A0000319E22AAB010408AA002B10831B2B14A9
:1005B0000008AC0002212A08840083132B1883173B
:0805C000840ACE2A622A6300BE
:04400E00F22FFF3F4F
:00000001FF
;PIC16F887
